:0400000080316428BF
:10000800803120007F08F2000B1C0B280C28602888
:10001800D2010314D20D0B102700931E14281528A3
:100028003828911E18281928242820001708CF01DD
:10003800CF071608CE01CE07270091129216362850
:1000480020004E09F0004F09F100F00A0319F10AE7
:1000580016087007C2001708713DC30027009116E3
:100068009212362893123828131E3B283C28602801
:10007800111E3F2840284B2820001708D101D1071E
:100088001608D001D0072700111212165D2820008B
:100098005009F0005109F100F00A0319F10A160895
:1000A8007007C4001708713DC50027001116121209
:1000B8005D2813126028602872082000FF000900DC
:1000C80088018531AC2D21001908873970389900CD
:1000D800FC3099056F281A1C722873286F28742819
:1000E80023008C018E01FF3021008C00FF308E0030
:1000F80024008C018E012100951324000E163F3038
:1001080020009805303098049601970118142200B1
:100118001D1523009C0133309B009E161E129D174F
:1001280021000C10270091169212111612122200AB
:100138001E109F3020009B0025001308F0390C3852
:1001480093001A08F0390C389A0026001308F03981
:100158000C3893001A08F0390C389A002000B901BD
:1001680004303902031CB928BA28BC28D028D02862
:10017800390809073A3E860087010030C03F003041
:10018800C13F0130B7003708B90704303902031CF2
:10019800CE28CF28BC28D0288131C2218031250023
:1001A8009E012000911087309C051C08FC390138FD
:1001B8009C001C15DF28911CE228E328DF28210079
:1001C8008E128E110C118E108B158B17EB28823125
:1001D800D22280312000B90104303902031CF528ED
:1001E800F628F8280B290B29390809073A3E860012
:1001F80087010030C03F0030C13F0130B7003708E9
:10020800B90704303902031C0A290B29F8280E1EE5
:100218000E290F293E29CB1B122913291A294B080D
:10022800BF01BF074A08BE01BE0726294A09B70011
:100238004B09B800B70A0319B80A3708BA003808D2
:10024800BB002629CD1B29292A2931294D08C1019E
:10025800C1074C08C001C0078B294C09B7004D09DC
:10026800B800B70A0319B80A3708BC003808BD0037
:100278008B298B29CB1B412942294F294B08BF01C8
:10028800BF074A08BE01BE074B08C101C1074A089B
:10029800C001C00766294A09B7004B09B800B70A68
:1002A8000319B80A3708BA003808BB004A09B7006A
:1002B8004B09B800B70A0319B80A3708BC00380850
:1002C800BD006629CD1B69296A2973294C08BA071C
:1002D8004D08BB3D4C08C0074D08C13D8B294C0952
:1002E800B7004D09B800B70A0319B80A3708BC07A0
:1002F8003808BD3D4C09B7004D09B800B70A0319C5
:10030800B80A3708BE073808BF3D8B298B298131C9
:10031800C22180312000B90102303902031C95291D
:1003280096299829BA29BA2939080907463E860024
:100338008701403FA800413FA900390809074A3E04
:1003480086008701403FAA00413FAB00A3308331BC
:10035800BC23803101302000B7003708B9070230CC
:100368003902031CB829B9299829BA29AA30833136
:10037800BC238031EB28EB28803164282000AC01B5
:1003880004302C02031CC929CA29CC295E2A5E2AFA
:100398002C0809073A3E86008701403FA400413FE8
:1003A800A5002508803AFF0080307F02031DDE2962
:1003B800653024020318E129E229ED2920002C08E0
:1003C80009073A3E86008701403FA800413FA9003F
:1003D800F32964302000A8000030A900F329A91BE4
:1003E800F629F729252A2C0809073A3E86008701AD
:1003F800403FA400413FA5002508803AFF00803017
:100408007F02031D092A6530240203180C2A0D2ACD
:10041800182A20002C0809073A3E86008701403F29
:10042800AA00413FAB001E2A64302000AA00003019
:10043800AB001E2A2B08A701A7072A08A601A607B2
:10044800282AA601A701282A2C0809073A3E86006F
:1004580087012608C03F2708C13F2C0809073A3EF4
:1004680086008701403FA400413FA5002508803A47
:10047800FF0080307F02031D432A05302402031841
:10048800462A472A522A20002C0809073A3E8600A5
:1004980087010030C03F0030C13F522A01302000A0
:1004A800A4002408AC0704302C02031C5C2A5D2A33
:1004B800CC295E2A0A30F3000030F4003B08A5007E
:1004C8003A08A4000430A435A50D890B672A24082E
:1004D800053EF5000030253DF6008431A524813124
:1004E8007308250091000A30F3000030F400023050
:1004F8003A3E86008701403F2000A400413FA50006
:100508000430A435A50D890B852A2408053EF5007D
:100518000030253DF6008431A5248131730825007B
:1005280098000A30F3000030F40004303A3E8600A8
:100538008701403F2000A400413FA5000430A435B6
:10054800A50D890BA32A2408053EF5000030253D9A
:10055800F6008431A52481317308260091000A3001
:10056800F3000030F40006303A3E86008701403F31
:100578002000A400413FA5000430A435A50D890B37
:10058800C12A2408053EF5000030253DF6008431D7
:10059800A524813173082600980008002000D201A4
:1005A8000230A600A030A5009230A400A40BDA2ADD
:1005B800A50BDA2AA60BDA2A640020005208031DCC
:1005C800E62A0E2B8B13A90102302902031CED2AFF
:1005D800EE2AF02A0C2B0C2B29080907423E86002C
:1005E8008701403FA400413FA50029080907463E6E
:1005F800860087012408C03F2508C13F0130A400B8
:100608002408A90702302902031C0B2B0C2BF02A03
:100618008B172B2BA90102302902031C142B152B35
:10062800172B2B2B2B2B29080907463E8600870101
:10063800DC30C03F0530C13F0130A4002408A907C1
:1006480002302902031C292B2A2B172B2B2BA9013B
:1006580002302902031C312B322B342BBB2BBB2B32
:1006680029080907463E86008701403FA400413F0C
:10067800A50003302502853003192402031C452BED
:10068800462BA62B29080907463E86008701403FCE
:10069800A400413FA5000830250234300319240284
:1006A8000318572B582BA62B29080907463E860006
:1006B8008701403FA400413FA5002408183EA70039
:1006C800FC30253DA800A81F6A2B6B2B6E2BA701B9
:1006D800A8016E2B2808803AFF0083307F02031D93
:1006E800772BE9302702031C7A2B7B2B812BE830F0
:1006F8002000A7000330A800812B0530F30000304C
:10070800F40020002708023EF5000030283DF600DE
:100718008431A524823174082000A801A807730831
:10072800A701A70727089C3EA400FF30283DA50085
:10073800290809074A3E860087012408C03F250882
:10074800C13FB02B290809074A3E860087010030BF
:10075800C03F0030C13FB02B0130A4002408A907D6
:1007680002302902031CB92BBA2B342BBB2B0800EF
:100778002000AE002830AC002C08B000922C3608BF
:10078800253A0319C82BC92BCE2B36088531B92534
:100798008331922CB101D72BA42CEC2BEC2B922C6F
:1007A8003117EC2BEC2B0130AE07FF302E078531CB
:1007B8000A008331B600003A0319A42C643A0319DD
:1007C800EC2B0D3A0319EC2B1C3A0319D42B922C61
:1007D800311BEF2BF02B0A2C300886008701403F95
:1007E800B200413FB3000230AC002C08B007B31F81
:1007F800FE2BFF2B162C0330AC002C08B104B209D9
:10080800B309B20A0319B30A162C162C300886004D
:100818008701403FB200413FB3000230AC002C08D2
:10082800B007162CB6010314B60D3608053A031D99
:100838001E2C1F2C212C452C452C993084008530EA
:1008480085003608090784070318850A003FAC00AD
:10085800013FAD002D083302031D342C2C08320251
:100868000318372C382C3A2C452C452C0130AC0079
:100878002C08B6073608053A031D432C442C212CB6
:10088800452C3108033903194A2C4B2C502C2D3098
:100898008531B9258331502C20003608AC002C084E
:1008A800AF00852C0A30A3000030A40099308400E2
:1008B800853085002F08090784070318850A003F3B
:1008C800F300013FF4003308F601F6073208F5019A
:1008D800F50785311225833174082000A601A60783
:1008E8007308A501A5078531592583312000230800
:1008F800303EAC002C08B60036088531B925833166
:10090800852CFF302000AC002C08AF072F08FF3AD9
:10091800031D8F2C902C562C922C922C01302000E9
:10092800AE07FF302E0785310A008431AC002C0851
:10093800B600B608031DA12CA22CC32BA42CA42CF2
:1009480008002000A101F41FAA2CAB2CB42CF30939
:10095800F409F30A0319F40AA1010314A10DB42C34
:10096800F61FB72CB82CC22CF509F609F50A03199D
:10097800F60A0130F7007708A106C22CA201A301EC
:10098800740873040319C92CCA2C002DA001031480
:10099800A00DD82C0130F335F40D890BCF2C013084
:1009A800F7007708A007D82CF41FDB2CDC2CCE2C02
:1009B800DE2CDE2C0130A235A30D890BDF2C740848
:1009C8007602031DE92C73087502031CEC2CED2C30
:1009D800F32C7308F5027408F63B2214F32C01304B
:1009E800F436F30C890BF42C0130A002031DFD2C06
:1009F800FE2CDE2C002D002D2108031D042D0A2DB0
:100A0800A209A309A20A0319A30A0A2D2308F401BB
:100A1800F4072208F301F307112D08002000A101B3
:100A2800A2017408730403191A2D1B2D512DA0015E
:100A38000314A00D292D0130F335F40D890B202D59
:100A48000130F7007708A007292DF41F2C2D2D2D34
:100A58001F2D2F2D2F2D0130A135A20D890B302DE3
:100A680074087602031D3A2D73087502031C3D2D88
:100A78003E2D442D7308F5027408F63B2114442DCD
:100A88000130F436F30C890B452D0130A002031D0B
:100A98004E2D4F2D2F2D512D512D2208F401F407E5
:100AA8002108F301F307582D080020002408230427
:100AB80003195F2D602D902DA7010314A70D6E2D2E
:100AC8000130A335A40D890B652D0130F800780895
:100AD800A7076E2DA41F712D722D642D742D742DF2
:100AE80024082602031D7A2D23082502031C7D2DC8
:100AF8007E2D832D2308A5022408A63B832D0130D3
:100B0800A436A30C890B842D0130A702031D8D2D5B
:100B18008E2D742D902D902D2608A401A40725084C
:100B2800A301A307972D08000034013400340A34C8
:100B3800003464340034E834033410342734253462
:100B480075342C3425346434203400340A340034A9
:100B5800F901FA013A3084000030850019308531F6
:100B6800C5258531200080316728F300BB2D200082
:100B7800111EBF2DC02DBB2DC12D730823009A0057
:0E0B88000800640080010131890BC62D003485
:020000040001F9
:04000E0084C9FFDDC5
:00000001FF
